{
  "contractName": "cryptocraps",
  "abi": [
    {
      "inputs": [],
      "payable": false,
      "stateMutability": "nonpayable",
      "type": "constructor"
    },
    {
      "anonymous": false,
      "inputs": [
        {
          "indexed": false,
          "name": "bidder",
          "type": "address"
        },
        {
          "indexed": false,
          "name": "setPoint",
          "type": "uint8"
        }
      ],
      "name": "newSetPoint",
      "type": "event"
    },
    {
      "anonymous": false,
      "inputs": [
        {
          "indexed": false,
          "name": "bidder",
          "type": "address"
        },
        {
          "indexed": false,
          "name": "betAmount",
          "type": "uint8"
        }
      ],
      "name": "newBetSet",
      "type": "event"
    },
    {
      "anonymous": false,
      "inputs": [
        {
          "indexed": false,
          "name": "bidder",
          "type": "address"
        },
        {
          "indexed": false,
          "name": "rollResult",
          "type": "uint8"
        }
      ],
      "name": "rollResult",
      "type": "event"
    },
    {
      "anonymous": false,
      "inputs": [
        {
          "indexed": false,
          "name": "bidder",
          "type": "address"
        },
        {
          "indexed": false,
          "name": "gameResult",
          "type": "bool"
        }
      ],
      "name": "gameResult",
      "type": "event"
    },
    {
      "constant": true,
      "inputs": [],
      "name": "getName",
      "outputs": [
        {
          "name": "",
          "type": "string"
        }
      ],
      "payable": false,
      "stateMutability": "view",
      "type": "function"
    },
    {
      "constant": false,
      "inputs": [
        {
          "name": "_name",
          "type": "string"
        }
      ],
      "name": "setName",
      "outputs": [],
      "payable": false,
      "stateMutability": "nonpayable",
      "type": "function"
    },
    {
      "constant": true,
      "inputs": [],
      "name": "isBetSet",
      "outputs": [
        {
          "name": "",
          "type": "bool"
        }
      ],
      "payable": false,
      "stateMutability": "view",
      "type": "function"
    },
    {
      "constant": true,
      "inputs": [],
      "name": "getSetPoint",
      "outputs": [
        {
          "name": "",
          "type": "uint8"
        }
      ],
      "payable": false,
      "stateMutability": "view",
      "type": "function"
    },
    {
      "constant": true,
      "inputs": [],
      "name": "getGameResult",
      "outputs": [
        {
          "name": "",
          "type": "bool"
        }
      ],
      "payable": false,
      "stateMutability": "view",
      "type": "function"
    },
    {
      "constant": false,
      "inputs": [],
      "name": "sendPayment",
      "outputs": [],
      "payable": true,
      "stateMutability": "payable",
      "type": "function"
    },
    {
      "constant": false,
      "inputs": [],
      "name": "recievePayment",
      "outputs": [],
      "payable": true,
      "stateMutability": "payable",
      "type": "function"
    },
    {
      "constant": false,
      "inputs": [
        {
          "name": "userInput",
          "type": "uint8"
        }
      ],
      "name": "getNewBet",
      "outputs": [],
      "payable": false,
      "stateMutability": "nonpayable",
      "type": "function"
    },
    {
      "constant": false,
      "inputs": [],
      "name": "setThePoint",
      "outputs": [
        {
          "name": "",
          "type": "uint8"
        }
      ],
      "payable": false,
      "stateMutability": "nonpayable",
      "type": "function"
    },
    {
      "constant": true,
      "inputs": [],
      "name": "getRandom",
      "outputs": [
        {
          "name": "",
          "type": "uint8"
        }
      ],
      "payable": false,
      "stateMutability": "view",
      "type": "function"
    },
    {
      "constant": false,
      "inputs": [],
      "name": "roll",
      "outputs": [
        {
          "name": "",
          "type": "bool"
        }
      ],
      "payable": false,
      "stateMutability": "nonpayable",
      "type": "function"
    }
  ],
  "bytecode": "0x608060405273e32c019d89d0017ae98ed9f4bf326919293541206000806101000a81548173ffffffffffffffffffffffffffffffffffffffff021916908373ffffffffffffffffffffffffffffffffffffffff16021790555034801561006457600080fd5b506005600260006101000a81548160ff021916908360ff1602179055506119cb806100906000396000f3006080604052600436106100af576000357c0100000000000000000000000000000000000000000000000000000000900463ffffffff16806317d7de7c146100b45780631ae651c814610144578063389327921461017357806349898033146101a45780636720ceb1146101d4578063aacc5a17146101de578063b3fb14ad1461020f578063c47f00271461023e578063cd5e3c5d146102a7578063cf846915146102d6578063e699366114610307575b600080fd5b3480156100c057600080fd5b506100c9610311565b6040518080602001828103825283818151815260200191508051906020019080838360005b838110156101095780820151818401526020810190506100ee565b50505050905090810190601f1680156101365780820380516001836020036101000a031916815260200191505b509250505060405180910390f35b34801561015057600080fd5b506101596103f3565b604051808215151515815260200191505060405180910390f35b34801561017f57600080fd5b5061018861044a565b604051808260ff1660ff16815260200191505060405180910390f35b3480156101b057600080fd5b506101d2600480360381019080803560ff169060200190929190505050610503565b005b6101dc61071f565b005b3480156101ea57600080fd5b506101f36107c0565b604051808260ff1660ff16815260200191505060405180910390f35b34801561021b57600080fd5b50610224610925565b604051808215151515815260200191505060405180910390f35b34801561024a57600080fd5b506102a5600480360381019080803590602001908201803590602001908080601f016020809104026020016040519081016040528093929190818152602001838380828437820191505050505050919291929050505061097c565b005b3480156102b357600080fd5b506102bc6109d6565b604051808215151515815260200191505060405180910390f35b3480156102e257600080fd5b506102eb6116bf565b604051808260ff1660ff16815260200191505060405180910390f35b61030f611838565b005b6060600160003373ffffffffffffffffffffffffffffffffffffffff1673ffffffffffffffffffffffffffffffffffffffff1681526020019081526020016000206003018054600181600116156101000203166002900480601f0160208091040260200160405190810160405280929190818152602001828054600181600116156101000203166002900480156103e95780601f106103be576101008083540402835291602001916103e9565b820191906000526020600020905b8154815290600101906020018083116103cc57829003601f168201915b5050505050905090565b6000600160003373ffffffffffffffffffffffffffffffffffffffff1673ffffffffffffffffffffffffffffffffffffffff16815260200190815260200160002060020160019054906101000a900460ff16905090565b600060011515600160003373ffffffffffffffffffffffffffffffffffffffff1673ffffffffffffffffffffffffffffffffffffffff16815260200190815260200160002060020160019054906101000a900460ff1615151415156104ae57600080fd5b600160003373ffffffffffffffffffffffffffffffffffffffff1673ffffffffffffffffffffffffffffffffffffffff16815260200190815260200160002060000160009054906101000a900460ff16905090565b8060ff163373ffffffffffffffffffffffffffffffffffffffff163111151561052b57600080fd5b6000600160003373ffffffffffffffffffffffffffffffffffffffff1673ffffffffffffffffffffffffffffffffffffffff1681526020019081526020016000206001018190555060018060003373ffffffffffffffffffffffffffffffffffffffff1673ffffffffffffffffffffffffffffffffffffffff16815260200190815260200160002060020160016101000a81548160ff02191690831515021790555080600160003373ffffffffffffffffffffffffffffffffffffffff1673ffffffffffffffffffffffffffffffffffffffff16815260200190815260200160002060000160026101000a81548160ff021916908360ff1602179055506106306107c0565b600260008282829054906101000a900460ff160192506101000a81548160ff021916908360ff1602179055507f838103079f12e3c9e35bc4a43c3bbb9f24ed7ad241a29325d80e3b705339e27233600160003373ffffffffffffffffffffffffffffffffffffffff1673ffffffffffffffffffffffffffffffffffffffff16815260200190815260200160002060000160029054906101000a900460ff16604051808373ffffffffffffffffffffffffffffffffffffffff1673ffffffffffffffffffffffffffffffffffffffff1681526020018260ff1660ff1681526020019250505060405180910390a150565b60003390508073ffffffffffffffffffffffffffffffffffffffff166108fc600160003373ffffffffffffffffffffffffffffffffffffffff1673ffffffffffffffffffffffffffffffffffffffff16815260200190815260200160002060000160029054906101000a900460ff1660ff169081150290604051600060405180830381858888f193505050501580156107bc573d6000803e3d6000fd5b5050565b6000806000600160053373ffffffffffffffffffffffffffffffffffffffff16424460405160200180838152602001828152602001925050506040516020818303038152906040526040518082805190602001908083835b60208310151561083d5780518252602082019150602081019050602083039250610818565b6001836020036101000a0380198251168184511680821785525050505050509050019150506040518091039020600190040281151561087857fe5b0601915060016005424460405160200180838152602001828152602001925050506040516020818303038152906040526040518082805190602001908083835b6020831015156108dd57805182526020820191506020810190506020830392506108b8565b6001836020036101000a03801982511681845116808217855250505050505090500191505060405180910390206001900481151561091757fe5b060190508181019250505090565b6000600160003373ffffffffffffffffffffffffffffffffffffffff1673ffffffffffffffffffffffffffffffffffffffff16815260200190815260200160002060020160009054906101000a900460ff16905090565b80600160003373ffffffffffffffffffffffffffffffffffffffff1673ffffffffffffffffffffffffffffffffffffffff16815260200190815260200160002060030190805190602001906109d29291906118fa565b5050565b600060011515600160003373ffffffffffffffffffffffffffffffffffffffff1673ffffffffffffffffffffffffffffffffffffffff16815260200190815260200160002060020160019054906101000a900460ff161515141515610a3a57600080fd5b610a426107c0565b600260008282829054906101000a900460ff160192506101000a81548160ff021916908360ff1602179055506007600160003373ffffffffffffffffffffffffffffffffffffffff1673ffffffffffffffffffffffffffffffffffffffff16815260200190815260200160002060000160009054906101000a900460ff1660ff161480610b215750600b600160003373ffffffffffffffffffffffffffffffffffffffff1673ffffffffffffffffffffffffffffffffffffffff16815260200190815260200160002060000160009054906101000a900460ff1660ff16145b15610c88576000600160003373ffffffffffffffffffffffffffffffffffffffff1673ffffffffffffffffffffffffffffffffffffffff168152602001908152602001600020600101819055506000600160003373ffffffffffffffffffffffffffffffffffffffff1673ffffffffffffffffffffffffffffffffffffffff16815260200190815260200160002060020160016101000a81548160ff02191690831515021790555060018060003373ffffffffffffffffffffffffffffffffffffffff1673ffffffffffffffffffffffffffffffffffffffff16815260200190815260200160002060020160006101000a81548160ff0219169083151502179055506000600160003373ffffffffffffffffffffffffffffffffffffffff1673ffffffffffffffffffffffffffffffffffffffff16815260200190815260200160002060000160006101000a81548160ff021916908360ff160217905550600190506116bc565b6003600160003373ffffffffffffffffffffffffffffffffffffffff1673ffffffffffffffffffffffffffffffffffffffff16815260200190815260200160002060010154101515610e37576000600160003373ffffffffffffffffffffffffffffffffffffffff1673ffffffffffffffffffffffffffffffffffffffff168152602001908152602001600020600101819055506000600160003373ffffffffffffffffffffffffffffffffffffffff1673ffffffffffffffffffffffffffffffffffffffff16815260200190815260200160002060020160016101000a81548160ff0219169083151502179055506000600160003373ffffffffffffffffffffffffffffffffffffffff1673ffffffffffffffffffffffffffffffffffffffff16815260200190815260200160002060020160006101000a81548160ff0219169083151502179055506000600160003373ffffffffffffffffffffffffffffffffffffffff1673ffffffffffffffffffffffffffffffffffffffff16815260200190815260200160002060000160006101000a81548160ff021916908360ff160217905550600090506116bc565b6002600160003373ffffffffffffffffffffffffffffffffffffffff1673ffffffffffffffffffffffffffffffffffffffff16815260200190815260200160002060000160009054906101000a900460ff1660ff161480610eea57506003600160003373ffffffffffffffffffffffffffffffffffffffff1673ffffffffffffffffffffffffffffffffffffffff16815260200190815260200160002060000160009054906101000a900460ff1660ff16145b80610f475750600c600160003373ffffffffffffffffffffffffffffffffffffffff1673ffffffffffffffffffffffffffffffffffffffff16815260200190815260200160002060000160009054906101000a900460ff1660ff16145b156110af576000600160003373ffffffffffffffffffffffffffffffffffffffff1673ffffffffffffffffffffffffffffffffffffffff168152602001908152602001600020600101819055506000600160003373ffffffffffffffffffffffffffffffffffffffff1673ffffffffffffffffffffffffffffffffffffffff16815260200190815260200160002060020160016101000a81548160ff0219169083151502179055506000600160003373ffffffffffffffffffffffffffffffffffffffff1673ffffffffffffffffffffffffffffffffffffffff16815260200190815260200160002060020160006101000a81548160ff0219169083151502179055506000600160003373ffffffffffffffffffffffffffffffffffffffff1673ffffffffffffffffffffffffffffffffffffffff16815260200190815260200160002060000160006101000a81548160ff021916908360ff160217905550600090506116bc565b6110b76107c0565b600160003373ffffffffffffffffffffffffffffffffffffffff1673ffffffffffffffffffffffffffffffffffffffff16815260200190815260200160002060000160016101000a81548160ff021916908360ff16021790555060018060003373ffffffffffffffffffffffffffffffffffffffff1673ffffffffffffffffffffffffffffffffffffffff1681526020019081526020016000206001015401600160003373ffffffffffffffffffffffffffffffffffffffff1673ffffffffffffffffffffffffffffffffffffffff168152602001908152602001600020600101819055507fd73e808db029bae755aca48aea82a336c710054f7954ec1fce52821ca097c54533600160003373ffffffffffffffffffffffffffffffffffffffff1673ffffffffffffffffffffffffffffffffffffffff16815260200190815260200160002060000160019054906101000a900460ff16604051808373ffffffffffffffffffffffffffffffffffffffff1673ffffffffffffffffffffffffffffffffffffffff1681526020018260ff1660ff1681526020019250505060405180910390a1600160003373ffffffffffffffffffffffffffffffffffffffff1673ffffffffffffffffffffffffffffffffffffffff16815260200190815260200160002060000160009054906101000a900460ff1660ff16600160003373ffffffffffffffffffffffffffffffffffffffff1673ffffffffffffffffffffffffffffffffffffffff16815260200190815260200160002060000160019054906101000a900460ff1660ff16141561146a576000600160003373ffffffffffffffffffffffffffffffffffffffff1673ffffffffffffffffffffffffffffffffffffffff168152602001908152602001600020600101819055506000600160003373ffffffffffffffffffffffffffffffffffffffff1673ffffffffffffffffffffffffffffffffffffffff16815260200190815260200160002060020160016101000a81548160ff02191690831515021790555060018060003373ffffffffffffffffffffffffffffffffffffffff1673ffffffffffffffffffffffffffffffffffffffff16815260200190815260200160002060020160006101000a81548160ff0219169083151502179055506000600160003373ffffffffffffffffffffffffffffffffffffffff1673ffffffffffffffffffffffffffffffffffffffff16815260200190815260200160002060000160006101000a81548160ff021916908360ff160217905550600190506116bc565b6007600160003373ffffffffffffffffffffffffffffffffffffffff1673ffffffffffffffffffffffffffffffffffffffff16815260200190815260200160002060000160019054906101000a900460ff1660ff161415611627576000600160003373ffffffffffffffffffffffffffffffffffffffff1673ffffffffffffffffffffffffffffffffffffffff168152602001908152602001600020600101819055506000600160003373ffffffffffffffffffffffffffffffffffffffff1673ffffffffffffffffffffffffffffffffffffffff16815260200190815260200160002060020160016101000a81548160ff02191690831515021790555060018060003373ffffffffffffffffffffffffffffffffffffffff1673ffffffffffffffffffffffffffffffffffffffff16815260200190815260200160002060020160006101000a81548160ff0219169083151502179055506000600160003373ffffffffffffffffffffffffffffffffffffffff1673ffffffffffffffffffffffffffffffffffffffff16815260200190815260200160002060000160006101000a81548160ff021916908360ff160217905550600090506116bc565b60018060003373ffffffffffffffffffffffffffffffffffffffff1673ffffffffffffffffffffffffffffffffffffffff1681526020019081526020016000206001015401600160003373ffffffffffffffffffffffffffffffffffffffff1673ffffffffffffffffffffffffffffffffffffffff168152602001908152602001600020600101819055506116ba6109d6565b505b90565b60006116c96107c0565b600160003373ffffffffffffffffffffffffffffffffffffffff1673ffffffffffffffffffffffffffffffffffffffff16815260200190815260200160002060000160006101000a81548160ff021916908360ff1602179055507f2937a6067b294d9c1a2e2128351be180c0d1eff408385dac0334bdb5a2e8241b33600160003373ffffffffffffffffffffffffffffffffffffffff1673ffffffffffffffffffffffffffffffffffffffff16815260200190815260200160002060000160009054906101000a900460ff16604051808373ffffffffffffffffffffffffffffffffffffffff1673ffffffffffffffffffffffffffffffffffffffff1681526020018260ff1660ff1681526020019250505060405180910390a1600160003373ffffffffffffffffffffffffffffffffffffffff1673ffffffffffffffffffffffffffffffffffffffff16815260200190815260200160002060000160009054906101000a900460ff16905090565b60008060009054906101000a900473ffffffffffffffffffffffffffffffffffffffff1690508073ffffffffffffffffffffffffffffffffffffffff166108fc600160003373ffffffffffffffffffffffffffffffffffffffff1673ffffffffffffffffffffffffffffffffffffffff16815260200190815260200160002060000160029054906101000a900460ff1660ff169081150290604051600060405180830381858888f193505050501580156118f6573d6000803e3d6000fd5b5050565b828054600181600116156101000203166002900490600052602060002090601f016020900481019282601f1061193b57805160ff1916838001178555611969565b82800160010185558215611969579182015b8281111561196857825182559160200191906001019061194d565b5b509050611976919061197a565b5090565b61199c91905b80821115611998576000816000905550600101611980565b5090565b905600a165627a7a72305820b0e908099cc29e882831422b500178a67bdfc90f2ffc1c1171e1194b038ef9560029",
  "source": "pragma solidity ^0.4.24;\r\n\r\ncontract cryptocraps{\r\n\taddress bigpot= 0xe32c019D89D0017AE98Ed9F4bF32691929354120;\r\n\tstruct game{\r\n\t\tuint8 setPoint;\r\n\t\tuint8 rollResult;\r\n\t\tuint8 betAmount;\r\n\t\tuint numberOfRolls;\r\n\t\tbool gameResult;\r\n\t\tbool isBetSet;\r\n\t    string name;\r\n\t}\r\n\r\n\tmapping(address => game) private games;\r\n\r\n\tevent newSetPoint(address bidder, uint8 setPoint);\r\n\tevent newBetSet(address bidder, uint8 betAmount);\r\n\tevent rollResult(address bidder, uint8 rollResult);\r\n\tevent gameResult(address bidder, bool gameResult);\r\n\r\n\r\n    uint8 private randomizer;\r\n\r\n\tconstructor() public{\r\n\t\trandomizer=5;\r\n\r\n\t}\r\n\t\r\n\tfunction getName() view returns(string){\r\n\t\treturn games[msg.sender].name;\r\n\t}\r\n\t\r\n\tfunction setName(string _name) public {\r\n\t\tgames[msg.sender].name = _name;\r\n\t}\r\n\t\r\n\r\n\tfunction isBetSet() public view returns(bool){\r\n\t\treturn games[msg.sender].isBetSet;\r\n\t}\r\n\t\r\n\tfunction getSetPoint() public view returns(uint8){\r\n\t    require(games[msg.sender].isBetSet == true);\r\n\t    return games[msg.sender].setPoint;\r\n\t}\r\n\tfunction getGameResult() public view returns(bool){\r\n\t    return games[msg.sender].gameResult;\r\n\t}\r\n\t\r\n\tfunction sendPayment() public payable{\r\n\t   address _reciever=msg.sender;\r\n\t    \r\n\t    _reciever.transfer(games[msg.sender].betAmount);\r\n\t}\r\n\t\r\n\tfunction recievePayment() public payable{\r\n\t    address _reciever=bigpot;\r\n\t    \r\n\t    _reciever.transfer(games[msg.sender].betAmount);\r\n\t}\r\n\r\n\tfunction getNewBet(uint8 userInput) public{\r\n\t\t\r\n\t\trequire(msg.sender.balance > userInput);\r\n\t\tgames[msg.sender].numberOfRolls=0;\r\n\t\tgames[msg.sender].isBetSet = true;\r\n\t\t\r\n\t\tgames[msg.sender].betAmount=userInput;\r\n\t\trandomizer += getRandom();\r\n\t\t\r\n\t\temit newBetSet(msg.sender,games[msg.sender].betAmount);\r\n\t\t\r\n\t}\r\n    function setThePoint() public returns(uint8){\r\n\t\t\r\n        games[msg.sender].setPoint = getRandom();\r\n        emit newSetPoint(msg.sender,games[msg.sender].setPoint);\r\n        return games[msg.sender].setPoint;\r\n    }\r\n\tfunction getRandom() public view returns (uint8) {\r\n       uint8 value= uint8(uint256(keccak256(abi.encodePacked(block.timestamp, block.difficulty)))*uint256(msg.sender)%5+1);\r\n       uint8 value1= uint8(uint256(keccak256(abi.encodePacked(block.timestamp, block.difficulty)))%5+1);\r\n       return value1+value;\r\n   }\r\n\r\n    function roll() public returns(bool){\r\n    \trequire (games[msg.sender].isBetSet == true);\r\n    \trandomizer += getRandom();\r\n    \tif(games[msg.sender].setPoint == 7 || games[msg.sender].setPoint == 11){\r\n    \t    games[msg.sender].numberOfRolls = 0;\r\n    \t    games[msg.sender].isBetSet=false;\r\n    \t    games[msg.sender].gameResult=true;\r\n\t\t\tgames[msg.sender].setPoint=0;\r\n    \t    return true;\r\n    \t}\r\n    \tif(games[msg.sender].numberOfRolls >= 3){\r\n    \t    games[msg.sender].numberOfRolls = 0;\r\n    \t    games[msg.sender].isBetSet=false;\r\n    \t\tgames[msg.sender].gameResult=false;\r\n\t\t\tgames[msg.sender].setPoint=0;\r\n    \t\treturn false;\r\n    \t}\r\n    \tif(games[msg.sender].setPoint == 2 || games[msg.sender].setPoint==3 || games[msg.sender].setPoint==12){\r\n\t\t    games[msg.sender].numberOfRolls = 0;\r\n\t\t    games[msg.sender].isBetSet=false;\r\n    \t\tgames[msg.sender].gameResult=false;\r\n\t\t\tgames[msg.sender].setPoint=0;\r\n    \t\treturn false;\r\n    \t\t\r\n    \t}\r\n    \tgames[msg.sender].rollResult = getRandom();\r\n    \tgames[msg.sender].numberOfRolls = games[msg.sender].numberOfRolls + 1;\r\n    \temit rollResult(msg.sender, games[msg.sender].rollResult);\r\n    \tif(games[msg.sender].rollResult == games[msg.sender].setPoint){\r\n    \t\tgames[msg.sender].numberOfRolls = 0;\r\n    \t\tgames[msg.sender].isBetSet=false;\r\n    \t\tgames[msg.sender].gameResult=true;\r\n\t\t\tgames[msg.sender].setPoint=0;\r\n    \t\treturn true;\r\n    \t\t\r\n    \t}\r\n    \tif(games[msg.sender].rollResult == 7 ){\r\n    \t   games[msg.sender].numberOfRolls = 0;\r\n    \t    games[msg.sender].isBetSet=false;\r\n    \t\tgames[msg.sender].gameResult=true;\r\n\t\t\tgames[msg.sender].setPoint=0;\r\n    \t\treturn false; \r\n    \t}\r\n    \r\n    \tgames[msg.sender].numberOfRolls = games[msg.sender].numberOfRolls + 1;\r\n    \troll();\r\n    }\r\n}",
  "sourcePath": "C:\\code\\Final_Project\\contracts\\cryptocraps.sol",
  "compiler": {
    "name": "solc",
    "version": "0.4.24+commit.e67f0147.Emscripten.clang"
  },
  "schemaVersion": "3.0.23",
  "updatedAt": "2020-04-28T01:08:21.411Z",
  "networkType": "ethereum",
  "devdoc": {
    "methods": {}
  },
  "userdoc": {
    "methods": {}
  }
}